:020000040800F2
:10000000080D0020A5010008AD010008AF0100089F
:1000100000000000000000000000000000000000E0
:10002000000000000000000000000000B101000816
:10003000000000000000000001170008B5010008E2
:10004000B701000800000000B7010008B701000870
:10005000B701000821110008B7010008B701000826
:1000600000000000B7010008B7010008B701000850
:10007000B7010008B7010008B70100080000000040
:10008000B11900080000000000000000B7010008DE
:10009000B7010008B7010008B7010008B701000860
:1000A000B7010008B7010008B7010008E91B000804
:1000B000B701000800F002F800F049F80CA030C8C1
:1000C000083824182D18A246671EAB4654465D46D4
:1000D000AC4201D100F03BF87E460F3E0FCCB64655
:1000E0000126334200D0FB1AA246AB4633431847E1
:1000F0003430000054300000103A02D378C878C180
:10010000FAD8520701D330C830C101D504680C6059
:10011000704700000023002400250026103A01D378
:1001200078C1FBD8520700D330C100D50B607047AF
:100130001FB5C046C04600F0C3F9040000200021EE
:1001400001F0D8FE401C60601FBD10B510BD00F06E
:1001500045FA1146FFF7ECFF01F0A6FE00F05DFA4C
:1001600003B4FFF7F2FF03BC00F05EFA70B505467A
:100170000C46164602E00FCC0FC5103E102EFAD2E8
:10018000082E02D303CC03C5083E042E07D301CCAE
:1001900001C5361F03E021782970641C6D1C761E92
:1001A000F9D270BD0748804707480047FEE7FEE7E1
:1001B000FEE7FEE7FEE7FEE704480549034A054B74
:1001C0007047000061190008B5000008080B002006
:1001D000080D0020080B002010B500F071F9001D7B
:1001E00010BD00BF111D0000431A70B593421BD211
:1001F0008918801804E0491E521E0B78401E0370B7
:100200009307F8D106E010390B461038103A78CB36
:1002100078C01038102AF6D203E0001F091F0B68BF
:100220000360121FF9D570BDFFF7A0FF70BDF8B5D0
:10023000064614460843800707D0751AA54219D20E
:100240000819102D13D2311907E03046FFF7CCFF03
:10025000F8BD401E491E02780A70641EF9D2F8BD2E
:10026000471B2A46394600F02FF9641B3846A54241
:10027000F6D3011B2246304600F026F9F8BDD2B273
:1002800010B513029A1813049A1800F00EF810BD56
:1002900001E004C0091F0429FBD28B0701D50280AD
:1002A000801CC90700D00270704700290BD0C3071B
:1002B00002D00270401C491E022904D3830702D5D4
:1002C0000280801C891EE3E70022EEE70022DFE7C0
:1002D000002203098B4273D3030A8B4258D3030BCA
:1002E0008B423CD3030C8B4221D312E003460B43D9
:1002F0007FD4002243088B4274D303098B425FD31F
:10030000030A8B4244D3030B8B4228D3030C8B424A
:100310000DD3FF22090212BA030C8B4202D3121230
:10032000090265D0030B8B4219D300E0090AC30B05
:100330008B4201D3CB03C01A5241830B8B4201D3B2
:100340008B03C01A5241430B8B4201D34B03C01A9B
:100350005241030B8B4201D30B03C01A5241C30A13
:100360008B4201D3CB02C01A5241830A8B4201D384
:100370008B02C01A5241430A8B4201D34B02C01A6E
:100380005241030A8B4201D30B02C01A5241CDD213
:10039000C3098B4201D3CB01C01A524183098B425E
:1003A00001D38B01C01A524143098B4201D34B0147
:1003B000C01A524103098B4201D30B01C01A5241AA
:1003C000C3088B4201D3CB00C01A524183088B4231
:1003D00001D38B00C01A524143088B4201D34B001A
:1003E000C01A5241411A00D201465241104670478C
:1003F0005DE0CA0F00D04942031000D34042534091
:1004000000229C4603098B422DD3030A8B4212D350
:10041000FC22890112BA030A8B420CD38901921182
:100420008B4208D3890192118B4204D389013AD0BF
:10043000921100E08909C3098B4201D3CB01C01A94
:10044000524183098B4201D38B01C01A52414309A7
:100450008B4201D34B01C01A524103098B4201D395
:100460000B01C01A5241C3088B4201D3CB00C01A02
:10047000524183088B4201D38B00C01A5241D9D21A
:1004800043088B4201D34B00C01A5241411A00D29B
:100490000146634652415B10104601D34042002B97
:1004A00000D54942704763465B1000D3404201B516
:1004B0000020C046C04602BD70477047704700002C
:1004C00000487047C80A0020F8B5042A2CD38307D7
:1004D00012D00B78491C0370401C521E83070BD0AE
:1004E0000B78491C0370401C521E830704D00B7804
:1004F000491C0370401C521E8B079B0F05D0C91A64
:10050000DF002023DE1B08C90AE0FFF72FFEF8BD3D
:100510001D4608C9FD401C46B4402C4310C0121FA4
:10052000042AF5D2F308C91A521EF0D40B78491CDC
:100530000370401C521EEAD40B78491C0370401C07
:10054000521EE4D409780170F8BD000000487047DD
:10055000A80A0020024670B50A4392072AD11E4D10
:10056000EE0104C808C9541B9443344017D0D0B2DC
:10057000D9B2401A2106014310D190B299B2401A63
:10058000210401430AD110021902000A090A401A83
:100590002102014302D1100E190E401A70BD9A4279
:1005A000DFD010BA19BA884201D9012070BD0020ED
:1005B000C04370BD02780B78401C491C002A09D04A
:1005C0009A4207D102780B78401C491C002A01D0BE
:1005D0009A42EFD0D01A70BD010101017546FFF7B4
:1005E000B5FFAE46050069465346C008C0008546C3
:1005F00018B020B5FFF7E0FD60BC00274908B646FB
:100600000026C0C5C0C5C0C5C0C5C0C5C0C5C0C521
:10061000C0C5403D49008D4670470446C046C046AF
:100620002046FFF79DFD000001491820ABBEFEE704
:100630002600020070470000002862D0F8B5314C57
:100640000546202806D21B2D02D000F063FBF8BD22
:10065000012026E020782B490007000F00274E7864
:100660000528F4D203007B441B79DB189F4404085F
:100670001B1F02002770F8BD284601F0A1FBF8BD42
:100680005B2D03D0284600F0D3FCF8BD1021E01C00
:10069000FFF71AFE70094001DF21A7700840607063
:1006A00002202070F8BD032020703F2D10D0FFF7EE
:1006B00093FD0068415D13484078C006C00E2029B4
:1006C0000AD03B2D12D0A57000F0B2F82770F8BD0B
:1006D000202006436670F8BD1028FCD20119C878A6
:1006E0000A22504340193038C870F8BD1028FCD297
:1006F0000520C6410120C00630181B21C84160708A
:10070000F8BD7047920A0020F8B541493F4808609B
:1007100040480178490849000170017802221143DC
:1007200001700178F722114001700178DF2529401E
:100730000170002444701D21817037490A799208A4
:100740009200921C0A714C708C700A78334B1A70AC
:100750004A785A708A789A70CA78D606DA78F60E8D
:10076000520952013243CE782A40B606F60F76017E
:100770003243CE78BF277606F60FB6013A403243B1
:10078000DA7009798907890F19710178244ACB0732
:100790001178DB0F4908490019430378FD269B07B0
:1007A000DB0F5B00314019430378FB265B07DB0F4F
:1007B0009B00314019430378F7261B07DB0FDB0052
:1007C000314019430378EF26DB06DB0F1B01314074
:1007D0001943037829409B06DB0F5B011943117015
:1007E00041785170817891700E490C700E490C70EF
:1007F0000078000701D5A02200E020224B2149010A
:100800000A48FFF73CFD00F011FBF8BD751E00081B
:10081000D4000020C1000020C7000020CC00002030
:10082000C4000020920A0020C0000020E000002048
:10083000F8B5F84EF84F3146B3780A79F748F84DD5
:10084000C9784D2B7ED00EDC1C46413C0C2C7AD254
:1008500023007B441B79DB189F44253645525F7D7E
:1008600098A175B5F6F4EB4C6C2B64786CD00CDC6D
:10087000632B6FD004DC532B68D0542B63D134E14D
:10088000662B7DD0682B5ED19BE118466D38092818
:1008900059D203007B441B79DB189F44F75B545407
:1008A00054F6F554F400002900D101212A7892066B
:1008B000827802D56B78D21AD2B28A424AD3827831
:1008C000511AC9B2407843E0002900D10121AA7829
:1008D0006B78D21A8A423DDB82785118AA78C9B265
:1008E0008A4237D3EEE70322B256002A00D1012212
:1008F000417889184F292DDC8178407880180AE0EA
:100900000322B256002A00D101224178914221DB14
:1009100081784078801AC0B21AE0F178002900D1BD
:100920000121AA786B78D21A8A4213DB8278511897
:10093000AA78C9B28A420DD30446407800F0F6FE88
:10094000A17804E0C5E0A8E1F6E003E0C9E00020FA
:1009500000F0ECFEF8BDF178002900D101212A78E1
:100960009206827802D56B78D21AD2B28A42F1D33B
:1009700004468078401AC1B2607800F0D7FE00E0EB
:100980000DE0A178002000F0D1FEF8BD0322B256A0
:10099000002A00D101228178521ED0B2D8E7002A65
:1009A00000D10122002900D10121521ED0B2491EDE
:1009B0002A78C9B2920602D56A785118C9B2AA78C3
:1009C0008A42E2D3C4E7002908D001291FD00229B6
:1009D000DBD1287800072CD5A0222BE02978090745
:1009E00001D5A02200E0202281781D23591A50232E
:1009F000594343785024E31AC918437880786043F8
:100A0000C0191818FFF73BFC00F010FAF8BD297860
:100A1000090701D5A02200E02022417880785023E8
:100A20005843401C09187C48FFF729FC00F0FEF9E8
:100A3000F8BD20224B2149017748FFF720FC00F048
:100A4000F5F9F8BD3EE0FFE7002908D001291ED0E6
:100A50000229F6D1297809072AD5A02229E0297888
:100A6000090701D5A02200E02022437801468078C2
:100A700050246043C01949781818611AFFF7FFFB2A
:100A800000F0D4F9F8BD54E050E0E3E031E029781B
:100A9000090701D5A02200E0202241788078491C76
:100AA00050235843C019FFF7EAFB00F0BFF9E9E70C
:100AB0002022807850214843C019FFF7E0FB00F066
:100AC000B5F9DFE7A9780446807800F0AFFEA17899
:100AD000E1E0A9780446807800F0D2FEA1780020F9
:100AE00036E7084600F0F8FECCE7084600F066FE60
:100AF000C8E700200827F723E106C90E3218D2788C
:100B0000002A04D0072A05D01B2A0AD106E02A7839
:100B10001A4001E02A783A432A7002E02A781A4003
:100B20002A70401CC0B28142E8D2ABE700F0E4F981
:100B3000A8E73C488178C5E6002407463019C0780C
:100B400007281ED004DC042833D0062831D104E065
:100B500014281AD019282CD11CE07078800628D5CA
:100B60002878DF2108402870002228781146800666
:100B700000D56978A87888421BD3104600F0D6FDCE
:100B800017E028784008400002E02878FB21084060
:100B900028700EE0707880060BD5387980088000C8
:100BA000387139787A78B878502358431A4BC0187E
:100BB00011547078641CC006E4B2C00EA042BDD2CD
:100BC00060E7002401273019C07807281ED004DC14
:100BD000042837D0062835D104E0142824D0192859
:100BE00030D126E0707880062CD528782021084363
:100BF0002870002228781146800600D56978A878E8
:100C000088421FD3104600F091FD1BE0287838433E
:100C10000DE00000920A0020E0000020C700002044
:100C2000C1000020CC00002028780421084328704F
:100C300008E07078800605D5334801798908890075
:100C4000891C01717078641CC006E4B2C00EA04219
:100C5000B9D217E769706878002802D068781E2832
:100C600001D901206870AA70A878002802D0A8785D
:100C70001E2801D91E20A8706878401E6870A878C8
:100C8000401EA870A8786978884203D26878A9784D
:100C90006970A870697800205AE61CA402E0641C00
:100CA00001F08EF8002C02D020780028F7D170785F
:100CB000800602D53F2001F083F800243019C57862
:100CC000092D05D90A212846FFF702FB01F0C2F8D9
:100CD0000A212846FFF7FCFA0846303001F070F888
:100CE0007078C006C00EA04202D93B2001F068F81F
:100CF0007078641CC006E4B2C00EA042DED2B078A8
:100D000001F05EF8BEE60000C70000203C455343FA
:100D10003E5B000010B504461C2875D203007B44DE
:100D20001B79DB189F446F707070707770770D2D92
:100D30004040405A6065707770777070707077705F
:100D4000776C37484178002907D04278012A62DB66
:100D500081784078401EC0B243E032490A78D20719
:100D600059D00A78920604D582784978511AC9B2C6
:100D700000E0817800294ED08078401EC1B24F201B
:100D80002FE02748407808214007400F081A411EED
:100D9000CCB200283FD0202001F012F82046641E7B
:100DA000E4B20028F7D136E01E4CA0786178401AF2
:100DB00001280ADBA01D8178A278491CC9B28A42A9
:100DC00003D3407800F0B2FC05E02078800702D51C
:100DD000012000F081FD207840071CD51048817863
:100DE000002000F0A3FC16E00E4801781022114309
:100DF00003E00C480178EF22114001700BE003E0A2
:100E000009490120087010BD5E2000F0D9FF403470
:100E1000E0B200F0D5FF04490020087010BD0000CA
:100E2000C7000020C1000020920A00200948C178B4
:100E3000490949011931C170C178DF221140C170DF
:100E40004278817850235943034BC918515C017093
:100E500070470000C7000020E000002030B52248A5
:100E60000179224A8908137989009B079B0F19434E
:100E700001711F4801781F4B4C0819786400CD0799
:100E8000ED0F2C4304700478FD252C408D07ED0FE9
:100E90006D002C4304700478FB252C404D07ED0FAA
:100EA000AD002C4304700478F7252C400D07ED0F9E
:100EB000ED002C4304700478EF252C40CD06ED0F97
:100EC0002D012C43047004788906DF25C90F2C40BE
:100ED00049010C4304705978417099788170917878
:100EE000507800F023FC30BDC7000020CC0000206B
:100EF000C1000020C400002030B42A4908782A4AE2
:100F000010704878507088789070C878C306D07890
:100F1000DB0E400940011843CB789B06DB0F5C01D8
:100F2000DF2318402043CC78BF256406E40FA401DA
:100F300028402043D07008791C498007800F107129
:100F400008781B4AC4071078E40F4008400020438B
:100F50000C78FD25A407E40F6400284020430C789A
:100F6000FB256407E40FA400284020430C78F725F4
:100F70002407E40FE400284020430C78EF25E40622
:100F8000E40F2401284020430C781840A406E40F05
:100F9000640120431070487850708878907030BC9D
:100FA00070470000C7000020CC000020C1000020D6
:100FB000C400002030B41848C178DF221140C1704D
:100FC000C1784A06154907D50378447882785025B8
:100FD0006A435118635410E0027992070DD00279E8
:100FE0009207920F012A15D0027880235A40447844
:100FF000837850256B4359186254C1784906C91744
:10100000491CC9074A0EC178BF2319401143C1705A
:1010100030BC70475F22EAE7C7000020E0000020F4
:101020000249087008780028FCD1704700000020B1
:10103000F8B5374D002607463D2866D011DC042060
:10104000362F46D006DC282F43D0292F41D0352F0C
:1010500017D13EE0372F36D0382F37D03C2F10D164
:1010600053E04D2F12D006DC3E2F4ED0442F26D019
:10107000452F06D10EE04E2F47D04F2F45D0632F7E
:1010800001D0244C2AE0FFF73FFB3EE0012000F0B6
:1010900095FB3AE0204CA178304600F047FB1F4812
:1010A00081784278891A012909DBA1788078491C66
:1010B000C9B2884203D3607800F038FB25E00120F4
:1010C00000F00AFC21E0FFF717FF1EE0FFF7C6FE65
:1010D0001BE02870F8BD641C00F072FE002C02D0EA
:1010E00020780028F7D138093030392800D9C01DC0
:1010F00000F066FE3807000F3030392800D9C01DD7
:1011000000F05EFE3E2000F05BFE2E70F8BD000099
:10111000920A0020E0200008C7000020C100002043
:1011200070B54049022048613F4C60780921C309ED
:1011300001228720C9060025002B21D0637866781C
:101140005B061B0F5B1C1B075B0E06401E43667095
:101150007006000F0C2804D02088C00704D001209E
:1011600004E08A61258070BD012000048861208828
:1011700021884005800DC90AC9020143218070BD44
:101180002A4B1E78002E00D1258009261E70098A60
:10119000C9070CD0218863785B061B0F9A40114366
:1011A00049052288490DD20AD2020A432280617879
:1011B00062784906090F491C0907490E02400A4393
:1011C00062705006000F0B28D9D12088C00723D1A8
:1011D0002088400520D520880021C005000E082267
:1011E000C307DB0F5918521E40081206C9B2120E6F
:1011F000F6D1C80701D0002001E00120400221887B
:101200008905C90F4902884206D12088C005010E10
:10121000074800F02CF803E0FF21054800F027F80C
:10122000258070BD000401405E0000200100002008
:1012300060000020002181704170704742788378FF
:101240009A420AD082780378521C1A4082708278BF
:10125000C01C105C08700120704700207047417866
:101260008078814201D0012070470020704710B47F
:10127000437802785B1C84781340A34209D04378FA
:101280005B1C134043704278C01C115410BC0120F9
:10129000704710BC00207047417882789142FBD0A3
:1012A00081780278491C114081708178C01C085CEB
:1012B0007047000010B512490020886011490222D1
:1012C000CA600B6813430B600F4908800F49888080
:1012D0000F48FFF7AFFF0F484168FF22120291430A
:1012E00003229203891841600B49202008600748B7
:1012F0000322017811430170FF2000F00FF810BDA8
:1013000000000140000401405E0000205800002061
:101310006000002000E400E000E100E0F8B5FF24F8
:10132000224E09270546FF0670784006000F34D18B
:10133000388A800731D51E482023036000212846C3
:101340000822C407E40F6118521E40081206C9B2F1
:10135000120EF6D1C80701D0002001E001204002A2
:10136000690008430121890208433188C90AC9027A
:101370000143318070788021084370700D4803600C
:101380000420FFF74DFE01204004B8610420FFF760
:1013900047FE0220B8610120F8BD0720FFF740FE9C
:1013A000641E2406240EBFD10020F8BD5E0000207C
:1013B00080E100E000E100E0F8B5C748FFF76CFF0E
:1013C0000325C64CFF280FD02246AA2810D021782A
:1013D0008B079B0F18D0012B1CD0022B75D0032B31
:1013E00011D1FA2872D067E120782843207032E0CA
:1013F0002078022180088000801C2070F02050702E
:101400009170FFF78BFFF8BDFA2822D08908890078
:10141000491C2170E02820D0F02823D00028F2D0E9
:10142000AE4950228988CB05002BAD4B60DA90285D
:1014300000D2185CA94C0B061AD5AA4A1225002323
:10144000167886421CD05B1C921CDBB2AB42F7D3F1
:1014500027E129432170FF20D3E7908880210843AA
:101460009080F8BD9088FF21013108439080F8BD3D
:101470008B050DD59C4A102500231678864201D194
:1014800050780FE05B1C921CDBB2AB42F5D308E155
:10149000114203D0954A592803D303E0944A5928AE
:1014A00000D2105CE0380E2858D203007B441B7930
:1014B000DB189F44060C0C10F6F6F61919F6F61414
:1014C000F60608208143A180EBE0F1E0FFE0102068
:1014D0008143A180E5E020208143A180E1E001205B
:1014E00040028143A180DCE040208143A180D8E01C
:1014F000902800D2185C8B050ED57B4A1026034637
:10150000002517789F4201D1527811E06D1C921C82
:10151000EDB2B542F5D3C4E0114203D0734A592865
:1015200003D304E0724A592801D2125C00E002465B
:10153000002A13D01546E03D0E2D57D22B007B44D8
:101540001B79DB189F44060B0B101A2B3C4D4D5298
:10155000ADADAD066148082211438180A1E05F482E
:101560001022114381809CE05C480A0602D50122CA
:10157000520200E020220A43828092E0574A04206F
:10158000414091802078490780088000801C2070AD
:10159000ED205070490F9170FFF7C0FE81E04F4A77
:1015A0000220414091802078490780088000801CFB
:1015B0002070ED205070490F9170FFF7AFFE70E082
:1015C000464A0120414091802078490780088000E8
:1015D000801C2070ED205070490F9170FFF79EFE27
:1015E0005FE03E484022114381805AE0E92A14D14D
:1015F0008A070BD53F4A0E240023157885420BD06D
:101600005B1C921CDBB2A342F7D34AE03A4A0E2598
:1016100000231478844213D15278100041D08028DE
:1016200030D20A0719D5014640391F2902D921397C
:10163000192936D801466139192907D8202106E031
:101640005B1C921CDBB2AB42E3D32AE00021401AC0
:101650004038C0B200F0A0F823E00246413A192A0F
:1016600002D9203A192A0AD8490708D50146613912
:10167000192901D8202100E00021401AC0B200F051
:101680008BF80EE0E0280CD210468038C4B2162C3D
:1016900007D21B2000F080F81848A100405800F045
:1016A00061F80E48FF228188813291438180F8BD24
:1016B000FA2804D0FE2808D0880880000AE0907834
:1016C000FFF72CFE2078284304E0507899E688083C
:1016D0008000401C2070F8BD6000002058000020F1
:1016E000201F0008BA200008B01F000829200008A9
:1016F000D01F0008822000089E20000868000020FB
:101700000120074AC006106020211160054A536875
:101710000343536030BF044A1060116070470000FB
:1017200080E100E000ED00E000E100E070B50A4A71
:1017300014785578937850267343084E9B19EC54CF
:101740004F2808D81D2906D850709170FFF76EFBFE
:1017500003490020087070BDC7000020E000002091
:10176000C0000020F8B50446094E802709E0641C3B
:1017700029460848FFF77BFD0028F9D03068384338
:101780003060002C02D02578002DF0D1F8BD00008B
:10179000003801404500002010B5044621460548A8
:1017A000FFF765FD0028F9D0034801688022114346
:1017B000016010BD4500002000380140F8B5002848
:1017C0001DD0401EC5B2164F7C78B87815490A78EE
:1017D0004B78897850267143134E89195A54A04288
:1017E00008D9021B502042436043811908465030FB
:1017F000FEF71DFD3878000703D5A02202E0002582
:10180000E1E7202250204443A0195021FEF737FD84
:10181000FFF70CFB28466D1EEDB20028D4D1F8BDB1
:10182000C1000020C7000020E000002070B5114A70
:1018300014785578927850235A430F4BD218AC54F1
:1018400050224243D418814206D90A1A50204243FA
:1018500021462018FEF7EBFC08480078000701D568
:10186000A02200E0202220465021FEF708FDFFF7CD
:10187000DDFA70BDC7000020E0000020C10000209C
:1018800070B50C4611490A784B7889785025694320
:101890000F4D49195A54844207D9221A50214843FE
:1018A0004A4340194118FEF7C2FC0A480078000775
:1018B00001D5A02200E0202250204443601950218D
:1018C000FEF7DDFCFFF7B2FA70BD0000C700002094
:1018D000E0000020C1000020F8B500281CD0401E08
:1018E000C7B21C4C6078A6781B490A784B78897877
:1018F00050256943194D49195A54864207D9321A5D
:10190000502148434A4340194118FEF790FC207883
:10191000000703D5A02202E00027E2E720225020A2
:10192000464370195021FEF7AAFCFFF77FFA207892
:10193000000701D5A02200E02022A17850204143D9
:1019400048195021FEF79BFC38467F1EFFB2002845
:10195000C8D1F8BDC1000020C7000020E000002071
:101960001149112008601148016801221204114335
:10197000016001688903FCD54260016801221206FA
:101980001143016001688901FCD5416802221143BD
:10199000416041680907890F0229FAD101684908A5
:1019A0004900016070470000002002400010024022
:1019B000F8B5824D288A834C43078148A17A0027D5
:1019C0000918E27A6068002B57DA804B7E4E1E635E
:1019D000D20745D07E4A801D1223867836018E5D5F
:1019E0009670C67836018E5DD670067936018E5DAA
:1019F00016714679001D36018E5D5671121D5B1EF3
:101A0000EBD1A07A401CC0B2A072102803D1A772FB
:101A1000606850306060A17A69480A1860686D4952
:101A200003781B01D35C4B7043781B01D35C8B7034
:101A300083781B01D35CCB70C3781B01D35C0B7123
:101A400003791B01D35C4B7143791B01D35C8B7110
:101A500083791B01D35CCB71C0790001105C0872E3
:101A6000E07A800705D531215B48490101604014C7
:101A7000A883288A042188439EE02B8ADB077DD037
:101A80002689731C23814F4BDB7A5B085B00252E74
:101A900059D00BDC4B4FFF7A3F07BC46BF0F022EDD
:101AA0000DD0042E1ED0242E5CD127E0FF3EFF3E39
:101AB000063E4BD0012E4BD0092E53D14CE00120D5
:101AC00040050921C90688616046810F2820002948
:101AD00005D0022F03D0298B8143298342E0298B33
:101AE0000143FAE7022F03D220210920C0068161B9
:101AF000FD200340E3723948606033E001231A435C
:101B0000E2720378334A1B01CB5C537043781B01AC
:101B1000CB5C937083781B01CB5CD370C3781B01C3
:101B2000CB5C137103791B01CB5C537143791B01AF
:101B3000CB5C937183791B01CB5CD371C0790001BD
:101B4000085C10720EE00220024303E0E37209E039
:101B5000FD200240E27205E02781A772206800287C
:101B600000D08047E07A800716D51848016B4908F5
:101B70004900016352214163164900E01DE0C16341
:101B8000FF211548213101608014A8831448416861
:101B9000012212071143416012480178002902D046
:101BA0000178491E01704178002902D04178491E10
:101BB0004170288A400840002882F8BD0004004097
:101BC000E7200008D400002091300000000002400F
:101BD000470A0020400A002040040040E0000020A6
:101BE00000ED00E00000002038B50E4CE0690E4D1D
:101BF000800604D5A888C1B20C48FFF738FBE0691D
:101C0000000608D569460A48FFF718FB002803D0EC
:101C100068460078288138BD20688021884320608C
:101C200038BD00000038014020380140020000208B
:101C30004500002010B50F4881690122920311432D
:101C40008161FF210C48B33181812D2101600B4856
:101C5000FFF7F0FA0A48FFF7EDFA0A488169032214
:101C60000902090A92078918816101200649C00604
:101C7000086010BD00100240003801400200002042
:101C80004500002000E400E000E100E03A4840693F
:101C90003A4908433849486188693949084336490F
:101CA0008861C869022108433349C8610921354860
:101CB000C90608600120000608620011C860032000
:101CC00088808861FF20113048620120C00388604D
:101CD0002D4908200860102008622C490420086063
:101CE0002949082088602A49002008812949C02004
:101CF000486368200883D2208863284926480880E2
:101D000000200881192023498001C86289890520A3
:101D1000204A01439181918A012211431D4A9182F7
:101D20001F498988D21311431D4A91801949098896
:101D3000014318480180C1211A48890001801A49CD
:101D40008180018840221143018019491748886326
:101D500018480168090A09020160174990020860E1
:101D6000164AD069FF231B04984301239B0518439F
:101D7000D0618805086070470010024001004600ED
:101D80000150000055A52828000400480014004810
:101D9000D400002000040040031000002004004094
:101DA0004004004000300140120700000C300140A8
:101DB0000000024010E400E000E100E004ED00E07B
:101DC000F8B5044620480178C90604D52146603993
:101DD000202900D2CCB20178090701D580210C431B
:101DE0001A4E317801271A4D00291CD00178C907F5
:101DF0000BD0A9788278914209D2A878401CC1B250
:101E00000020FFF793FC2C70F8BD2C7016E00078D2
:101E1000800708D50120FFF75FFDA9780020FFF7B4
:101E200085FC2C70F8BD2C7068784F2806D2A978F4
:101E30006878401CC0B2FFF779FCF8BDA9786878D3
:101E4000FFF774FC3770F8BDC1000020C00000200F
:101E5000C700002070B504460A21FEF739FA0D4686
:101E6000092C01D9FFF7F6FF28463030FFF7A8FF0D
:101E700070BD00000B48C178C278491CC906C90E64
:101E8000520952010A43C270C178C906C90E1E29FF
:101E900007D3C17820221143C170C1784909490193
:101EA000C1707047C7000020FFF7F0FEFFF7C2FEC9
:101EB000FFF700FAFEF728FC0B4C0C48FFF7CFF9B0
:101EC000002804D00948FFF7E7F9FEF7B5FB0848FA
:101ED000FFF7C5F9002801D0FFF76EFAE078800619
:101EE000EBD5FFF767F8E8E7C70000200200002005
:101EF0006000002010B500290AD00878002807D01B
:101F000005487844FEF726FB002801D0002010BDCC
:101F10000248784410BD0000421200003A1200004E
:101F2000FF43413F3D3B3C58644442403E0F2959EA
:101F300065382A701D10025A66712C1F1E11035B32
:101F4000672E2D201205045C68392F211413065DBD
:101F5000693130232215075E6A7232241608095F40
:101F60006B332517180B0A606C34352627190C6162
:101F70006D7328741A0D626E3A361C1B752B6376CE
:101F800055567778797A0E7B7C4F7D4B477E7F6FF5
:101F90005253504C4D480145574E514A37494654CB
:101FA000808182415485868788898A8B8C8D8E8F2B
:101FB000037E0423057B065B077C0860095C0B40FD
:101FC0000C5D0D7D10401B7E1DE02AE136E238E3FA
:101FD000001B26652227282D655F6361293D0809BE
:101FE000617A6572747975696F705E240DE0717342
:101FF000646667686A6B6C6DF92AE13C7778637692
:10200000626E2C3B3A21E22AE320E48081828384C1
:102010008586878889E5E6E9E9E9E9E9E9E9E9E921
:10202000E9E9E9E90000008A8B001B3132333435DD
:102030003637383930B02B0809415A455254595572
:10204000494F50A8A30DE05153444647484A4B4CD2
:102050004D25B5E13E57584356424E3F2E2FA7E23D
:102060002AE320E480818283848586878889E5E667
:10207000E9E9E9E9E9E9E9E9E9E9E9302E000000FF
:102080008A8B372A4737483849394A2D4B344C35E3
:102090004D364E2B4F31503251335230532E372A5A
:1020A000478C488D498E4A2D4B8F4C354D904E2B89
:1020B0004F9150925193529453951C0D1DED2AE768
:1020C000352F36E837EA38EB46EC478C488D498E99
:1020D0004B8F4D904F9150925193529453950000D5
:1020E0003C4553433E3C000000000000000000005F
:1020F0000000000000000055AA55AA55AA55AA558F
:10210000AA55AA55AA55AA0000000000FEFEFEFE30
:10211000FEFE00000000000000000000000000FFC4
:10212000FFFFFFFFFFFFFFFFFFFFFFFFFFFFFF00BE
:102130000000000000000000000000101038387C93
:102140007CFEFE0000000000000000FEFE7C7C38EB
:1021500038101000000000000000040C1C3C7C3C07
:102160001C0C0400000000000000406070787C78C7
:102170007060400000000000000000FE0000FE0053
:1021800000FE000000000018181818181818F800B1
:102190000000000000000000000000000000F8182F
:1021A00018181818181818000000000000001F1850
:1021B00018181818181818181818181818181F00B0
:1021C0000000000000000018181818181818FF1850
:1021D0001818181818181800183C7E18181818180D
:1021E00018181818000000001818181818181818CF
:1021F000187E3C1800000000000000000000FF00F6
:102200000000000000000000183C7E181818181884
:10221000187E3C180000000000000000001818188C
:1022200000000000000000181818181818181F18CF
:102230001818181818181818181818181818F8183E
:102240001818181818181818181818181818FF003F
:102250000000000000000000000000000000FF1867
:1022600018181818181818181818181818181818EE
:1022700018181818181818000000000000000000B6
:10228000000000000000000000000000000000004E
:10229000000000000000000000000000000000003E
:1022A000000000000000000000000000000000002E
:1022B000000000000000000000000000000000001E
:1022C000000000000000000000000000000000000E
:1022D00000000000000000000000000000000000FE
:1022E00000000000000000000000000000000000EE
:1022F000000000000000000000183C3C3C3C1818A6
:1023000000181800000000003636363614000000B1
:102310000000000000000000006C6C6CFE6C6CFEA5
:102320006C6C6C00000000000018187CC6C0783C83
:1023300006C67C18180000000000000062660C1839
:102340003066C6000000000000386C3830767ECC65
:10235000CCCC7600000000000C0C0C180000000033
:102360000000000000000000000C18303030303059
:1023700030180C00000000000030180C0C0C0C0C85
:102380000C18300000000000000000006C38FE381F
:102390006C000000000000000000000018187E180B
:1023A0001800000000000000000000000000000015
:1023B0000C0C0C1800000000000000000000FE00E3
:1023C000000000000000000000000000000000000D
:1023D000001818000000000000000002060C183071
:1023E00060C0800000000000007CC6C6CEDEF6E6BD
:1023F000C6C67C00000000000018781818181818CD
:1024000018187E0000000000007CC6C6060C1830BC
:1024100060C6FE0000000000007CC606063C060602
:1024200006C67C0000000000000C1C3C6CCCCCFEFE
:102430000C0C1E000000000000FEC0C0C0FC060620
:1024400006C67C0000000000007CC6C0C0FCC6C6FA
:10245000C6C67C000000000000FEC6060C18303026
:102460003030300000000000007CC6C6C67CC6C606
:10247000C6C67C0000000000007CC6C6C6C67E063C
:1024800006C67C0000000000000000000C0C0000EC
:102490000C0C000000000000000000000C0C00000C
:1024A0000C0C0C180000000000000C183060C0601C
:1024B00030180C00000000000000000000FE00FECC
:1024C000000000000000000000006030180C060C46
:1024D0001830600000000000007CC6C60C181818F8
:1024E0000018180000000000007CC6C6C6DEDEDE54
:1024F000DCC07E000000000000386CC6C6C6FEC608
:10250000C6C6C6000000000000FC6666667C666603
:102510006666FC0000000000003C66C2C0C0C0C08F
:10252000C2663C000000000000F86C6666666666E5
:10253000666CF8000000000000FE6660647C646069
:102540006066FE000000000000FE6660647C64605F
:102550006060F00000000000007CC6C6C0C0C0CEB5
:10256000C6C67C000000000000C6C6C6C6FEC6C6C1
:10257000C6C6C60000000000003C1818181818183D
:1025800018183C0000000000003C18181818181813
:10259000D8D870000000000000C6C6CCD8F0F0D833
:1025A000CCC6C6000000000000F0606060606060A3
:1025B0006266FE000000000000C6C6EEEEFED6D643
:1025C000D6C6C6000000000000C6C6E6E6F6DECEAF
:1025D000CEC6C60000000000007CC6C6C6C6C6C681
:1025E000C6C67C000000000000FC666666667C6073
:1025F0006060F00000000000007CC6C6C6C6C6C60B
:10260000D6D67C060000000000FC6666667C786C0E
:102610006666E60000000000007CC6C0C0701C06B4
:1026200006C67C0000000000007E5A181818181812
:1026300018183C000000000000C6C6C6C6C6C6C6C4
:10264000C6C67C000000000000C6C6C6C6C6C6C618
:102650006C3810000000000000C6C6C6D6D6D6FEF4
:10266000EEC6C6000000000000C6C6C66C38386C56
:10267000C6C6C600000000000066666666663C18B6
:1026800018183C000000000000FEC6860C183060E0
:10269000C2C6FE0000000000007C606060606060F8
:1026A00060607C000000000000000080C060301806
:1026B0000C06020000000000007C0C0C0C0C0C0C42
:1026C0000C0C7C000000000010386CC600000000FC
:1026D00000000000000000000000000000000000FA
:1026E00000000000FF0000001818180C0000000097
:1026F000000000000000000000000000780C7CCC0E
:10270000CCDC76000000000000E060607C6666665D
:102710006666FC0000000000000000007CC6C0C02F
:10272000C0C67C0000000000001C0C0C7CCCCCCC93
:10273000CCCC7E0000000000000000007CC6C6FE7D
:10274000C0C67C0000000000001C363030FC303079
:1027500030307800000000000000000076CEC6C6D1
:10276000CE7606C67C00000000E060607C6666668F
:102770006666E600000000000018180038181818F7
:1027800018183C0000000000000C0C001C0C0C0C85
:102790000C0CCCCC7800000000E0606066666C78C1
:1027A0006C66E600000000000018181818181818C9
:1027B00018181C0000000000000000006CFED6D6B7
:1027C000C6C6C6000000000000000000DC666666A9
:1027D0006666660000000000000000007CC6C6C6F9
:1027E000C6C67C000000000000000000DC666666D3
:1027F000667C6060F00000000000000076CCCCCC6D
:10280000CC7C0C0C1E00000000000000DC66606048
:102810006060F00000000000000000007CC6C07C8A
:1028200006C67C000000000000303030FC30303044
:1028300030361C000000000000000000CCCCCCCCE6
:10284000CCCC76000000000000000000C6C6C6C662
:102850006C3810000000000000000000C6C6D6D68C
:10286000D6FE6C000000000000000000C6C66C38F8
:102870006CC6C6000000000000000000C6C6C6C648
:10288000CE7606C67C00000000000000FE860C1814
:102890003062FE0000000000000E181818701818B2
:1028A00018180E000000000000181818180018185A
:1028B000181818000000000000701818180E1818DA
:1028C00018187000000000000076DC000000000016
:1028D0000000000000000000C0A0A0A0C038203010
:1028E00020380808080E00FFFFFFFFFFFFFFFFFF73
:1028F000FFFFFFFFFFFFFFAA55AA55AA55AA55AA39
:1029000055AA55AA55AA55FFFFFFFFFF0101010176
:102910000101FFFFFFFFFFFFFFFFFFFFFFFFFF00C2
:10292000000000000000000000000000000000FFA8
:10293000FFFFFFFFFFFFFFFFFFFFFFEFEFC7C783B3
:10294000830101FFFFFFFFFFFFFFFF01018383C73B
:10295000C7EFEFFFFFFFFFFFFFFFFBF3E3C383C3FF
:10296000E3F3FBFFFFFFFFFFFFFFBF9F8F8783871F
:102970008F9FBFFFFFFFFFFFFFFFFF01FFFF01FF73
:10298000FF01FFFFFFFFFFE7E7E7E7E7E7E707FFF5
:10299000FFFFFFFFFFFFFFFFFFFFFFFFFFFF07E757
:1029A000E7E7E7E7E7E7E7FFFFFFFFFFFFFFE0E716
:1029B000E7E7E7E7E7E7E7E7E7E7E7E7E7E7E0FF96
:1029C000FFFFFFFFFFFFFFE7E7E7E7E7E7E700E7D6
:1029D000E7E7E7E7E7E7E7FFE7C381E7E7E7E7E7F9
:1029E000E7E7E7E7FFFFFFFFE7E7E7E7E7E7E7E717
:1029F000E781C3E7FFFFFFFFFFFFFFFFFFFF00FFD0
:102A0000FFFFFFFFFFFFFFFFE7C381E7E7E7E7E720
:102A1000E781C3E7FFFFFFFFFFFFFFFFFFE7E7E7F8
:102A2000FFFFFFFFFFFFFFE7E7E7E7E7E7E7E0E795
:102A3000E7E7E7E7E7E7E7E7E7E7E7E7E7E707E706
:102A4000E7E7E7E7E7E7E7E7E7E7E7E7E7E700FFE5
:102A5000FFFFFFFFFFFFFFFFFFFFFFFFFFFF00E79D
:102A6000E7E7E7E7E7E7E7E7E7E7E7E7E7E7E7E7F6
:102A7000E7E7E7E7E7E7E7FFFFFFFFFFFFFFFFFF0E
:102A8000FFFFFFFFFFFFFFFFFFFFFFFFFFFFFFFF56
:102A9000FFFFFFFFFFFFFFFFFFFFFFFFFFFFFFFF46
:102AA000FFFFFFFFFFFFFFFFFFFFFFFFFFFFFFFF36
:102AB000FFFFFFFFFFFFFFFFFFFFFFFFFFFFFFFF26
:102AC000FFFFFFFFFFFFFFFFFFFFFFFFFFFFFFFF16
:102AD000FFFFFFFFFFFFFFFFFFFFFFFFFFFFFFFF06
:102AE000FFFFFFFFFFFFFFFFFFFFFFFFFFFFFFFFF6
:102AF000FFFFFFFFFFFFFFFFFFE7C3C3C3C3E7E71E
:102B0000FFE7E7FFFFFFFFFFC9C9C9C9EBFFFFFFF1
:102B1000FFFFFFFFFFFFFFFFFF93939301939301DD
:102B2000939393FFFFFFFFFFFFE7E783393F87C3DF
:102B3000F93983E7E7FFFFFFFFFFFFFF9D99F3E709
:102B4000CF9939FFFFFFFFFFFFC793C7CF898133BD
:102B5000333389FFFFFFFFFFF3F3F3E7FFFFFFFFCF
:102B6000FFFFFFFFFFFFFFFFFFF3E7CFCFCFCFCF89
:102B7000CFE7F3FFFFFFFFFFFFCFE7F3F3F3F3F33D
:102B8000F3E7CFFFFFFFFFFFFFFFFFFF93C701C783
:102B900093FFFFFFFFFFFFFFFFFFFFFFE7E781E777
:102BA000E7FFFFFFFFFFFFFFFFFFFFFFFFFFFFFF4D
:102BB000F3F3F3E7FFFFFFFFFFFFFFFFFFFF01FF5F
:102BC000FFFFFFFFFFFFFFFFFFFFFFFFFFFFFFFF15
:102BD000FFE7E7FFFFFFFFFFFFFFFFFDF9F3E7CF91
:102BE0009F3F7FFFFFFFFFFFFF8339393121091925
:102BF000393983FFFFFFFFFFFFE787E7E7E7E7E7F5
:102C0000E7E781FFFFFFFFFFFF833939F9F3E7CFE4
:102C10009F3901FFFFFFFFFFFF8339F9F9C3F9F97E
:102C2000F93983FFFFFFFFFFFFF3E3C39333330162
:102C3000F3F3E1FFFFFFFFFFFF013F3F3F03F9F920
:102C4000F93983FFFFFFFFFFFF83393F3F03393926
:102C5000393983FFFFFFFFFFFF0139F9F3E7CFCFDA
:102C6000CFCFCFFFFFFFFFFFFF83393939833939DA
:102C7000393983FFFFFFFFFFFF833939393981F984
:102C8000F93983FFFFFFFFFFFFFFFFFFF3F3FFFFB4
:102C9000F3F3FFFFFFFFFFFFFFFFFFFFF3F3FFFF74
:102CA000F3F3F3E7FFFFFFFFFFFFF3E7CF9F3F9F44
:102CB000CFE7F3FFFFFFFFFFFFFFFFFFFF01FF0174
:102CC000FFFFFFFFFFFFFFFFFFFF9FCFE7F3F9F3DA
:102CD000E7CF9FFFFFFFFFFFFF833939F3E7E7E708
:102CE000FFE7E7FFFFFFFFFFFF833939392121218C
:102CF000233F81FFFFFFFFFFFFC7933939390139B8
:102D0000393939FFFFFFFFFFFF039999998399999B
:102D1000999903FFFFFFFFFFFFC3993D3F3F3F3FEF
:102D20003D99C3FFFFFFFFFFFF0793999999999979
:102D3000999307FFFFFFFFFFFF01999F9B839B9FD5
:102D40009F9901FFFFFFFFFFFF01999F9B839B9FBF
:102D50009F9F0FFFFFFFFFFFFF8339393F3F3F3149
:102D6000393983FFFFFFFFFFFF393939390139391D
:102D7000393939FFFFFFFFFFFFC3E7E7E7E7E7E781
:102D8000E7E7C3FFFFFFFFFFFFC3E7E7E7E7E7E78B
:102D900027278FFFFFFFFFFFFF393933270F0F274B
:102DA000333939FFFFFFFFFFFF0F9F9F9F9F9F9FBB
:102DB0009D9901FFFFFFFFFFFF39391111012929FB
:102DC000293939FFFFFFFFFFFF393919190921316F
:102DD000313939FFFFFFFFFFFF833939393939397D
:102DE000393983FFFFFFFFFFFF0399999999839F6B
:102DF0009F9F0FFFFFFFFFFFFF83393939393939B3
:102E0000292983F9FFFFFFFFFF039999998387938E
:102E1000999919FFFFFFFFFFFF83393F3F8FE3F9C8
:102E2000F93983FFFFFFFFFFFF81A5E7E7E7E7E74A
:102E3000E7E7C3FFFFFFFFFFFF3939393939393978
:102E4000393983FFFFFFFFFFFF3939393939393904
:102E500093C7EFFFFFFFFFFFFF3939392929290108
:102E6000113939FFFFFFFFFFFF39393993C7C79386
:102E7000393939FFFFFFFFFFFF9999999999C3E706
:102E8000E7E7C3FFFFFFFFFFFF013979F3E7CF9FBC
:102E90003D3901FFFFFFFFFFFF839F9F9F9F9F9F84
:102EA0009F9F83FFFFFFFFFFFFFFFF7F3F9FCFE756
:102EB000F3F9FDFFFFFFFFFFFF83F3F3F3F3F3F3FA
:102EC000F3F383FFFFFFFFFFEFC79339FFFFFFFF20
:102ED000FFFFFFFFFFFFFFFFFFFFFFFFFFFFFFFF02
:102EE000FFFFFFFF00FFFFFFE7E7E7F3FFFFFFFF45
:102EF000FFFFFFFFFFFFFFFFFFFFFFFF87F38333AE
:102F0000332389FFFFFFFFFFFF1F9F9F839999993D
:102F1000999903FFFFFFFFFFFFFFFFFF83393F3F4B
:102F20003F3983FFFFFFFFFFFFE3F3F383333333C7
:102F3000333381FFFFFFFFFFFFFFFFFF83393901BD
:102F40003F3983FFFFFFFFFFFFE3C9CFCF03CFCFA1
:102F5000CFCF87FFFFFFFFFFFFFFFFFF8931393929
:102F60003189F93983FFFFFFFF1F9F9F839999994B
:102F7000999919FFFFFFFFFFFFE7E7FFC7E7E7E7C3
:102F8000E7E7C3FFFFFFFFFFFFF3F3FFE3F3F3F315
:102F9000F3F3333387FFFFFFFF1F9F9F99999387B9
:102FA000939919FFFFFFFFFFFFE7E7E7E7E7E7E791
:102FB000E7E7E3FFFFFFFFFFFFFFFFFF9301292983
:102FC000393939FFFFFFFFFFFFFFFFFF2399999971
:102FD000999999FFFFFFFFFFFFFFFFFF8339393901
:102FE000393983FFFFFFFFFFFFFFFFFF2399999907
:102FF00099839F9F0FFFFFFFFFFFFFFF893333334D
:103000003383F3F3E1FFFFFFFFFFFFFF23999F9F50
:103010009F9F0FFFFFFFFFFFFFFFFFFF83393F83EE
:10302000F93983FFFFFFFFFFFFCFCFCF03CFCFCF14
:10303000CFC9E3FFFFFFFFFFFFFFFFFF3333333352
:10304000333389FFFFFFFFFFFFFFFFFF39393939B6
:1030500093C7EFFFFFFFFFFFFFFFFFFF393929296C
:10306000290193FFFFFFFFFFFFFFFFFF393993C7E0
:10307000933939FFFFFFFFFFFFFFFFFF3939393970
:103080003189F93983FFFFFFFFFFFFFF0179F3E784
:10309000CF9D01FFFFFFFFFFFFF1E7E7E78FE7E7C6
:1030A000E7E7F1FFFFFFFFFFFFE7E7E7E7FFE7E7FE
:1030B000E7E7E7FFFFFFFFFFFF8FE7E7E7F1E7E75E
:1030C000E7E78FFFFFFFFFFFFF8923FFFFFFFFFF02
:1030D000FFFFFFFFFFFFFFFF3F5F5F5F3FC7DFCFE8
:1030E000DFC7F7F7F7F1FF2100300031003200337E
:1030F0000034003500360037003800390040004FFA
:1031000041004F42004F43004F44005B317E005B63
:10311000327E005B337E005B347E005B357E005B7D
:10312000367E00005432000800000020D400000069
:10313000F800000828330008D4000020340C0000F8
:10314000140100081001000043000000F8FFFFFF19
:1031500000404040404040404040414141414140AA
:10316000404040404040404040404040404040405F
:1031700040050202020202020202020202020202EE
:1031800002202020202020202020200202020202F3
:10319000020290909090909010101010101010104B
:1031A0001010101010101010101010100202020257
:1031B000020288888888888808080808080808089B
:1031C0000808080808080808080808080202020297
:1031D00040000000000000000000000000000000AF
:1031E00000000000000000000000000000000000DF
:1031F00000000000000000000000000000000000CF
:1032000000000000000000000000000000000000BE
:1032100000000000000000000000000000000000AE
:10322000000000000000000000000000000000009E
:10323000000000000000000000000000000000008E
:10324000000000000000000000000000000000007E
:103250000000000000003F0000000000000000002F
:10326000000000000000000000000000000000005E
:10327000000000000000000000000000000000004E
:10328000000000000000000000000000000000003E
:103290000000000000000000000F0000000000001F
:1032A000000000000000000000000000000000001E
:1032B000000000000300000000000000EB300008E8
:1032C000ED300008EF300008F1300008F33000085E
:1032D000F5300008F7300008F9300008FB3000082E
:1032E000E9300008E7300008FD3000080B31000825
:1032F000FF3000081B3100080831000805310008C4
:1033000017310008023100081F3100080F31000892
:103310001331000800000000000000000000000061
:083320000000000000000000A5
:04000005080000B53A
:00000001FF
