:020000040800F2
:10000000080D0020A5010008AD010008AF0100089F
:1000100000000000000000000000000000000000E0
:10002000000000000000000000000000B101000816
:1000300000000000000000007D170008B501000866
:10004000B701000800000000B7010008B701000870
:10005000B701000829110008B7010008B70100081E
:1000600000000000B7010008B7010008B701000850
:10007000B7010008B7010008B70100080000000040
:100080002D1A00080000000000000000B701000861
:10009000B7010008B7010008B7010008B701000860
:1000A000B7010008B7010008B7010008651C000887
:1000B000B701000800F002F800F049F80CA030C8C1
:1000C000083824182D18A246671EAB4654465D46D4
:1000D000AC4201D100F03BF87E460F3E0FCCB64655
:1000E0000126334200D0FB1AA246AB4633431847E1
:1000F000B0300000D0300000103A02D378C878C188
:10010000FAD8520701D330C830C101D504680C6059
:10011000704700000023002400250026103A01D378
:1001200078C1FBD8520700D330C100D50B607047AF
:100130001FB5C046C04600F0CFF9040000200021E2
:1001400001F016FF401C60601FBD10B510BD00F02F
:1001500051FA1146FFF7ECFF01F0E4FE00F069FAF6
:1001600003B4FFF7F2FF03BC00F06AFA70B505466E
:100170000C46164602E00FCC0FC5103E102EFAD2E8
:10018000082E02D303CC03C5083E042E07D301CCAE
:1001900001C5361F03E021782970641C6D1C761E92
:1001A000F9D270BD0748804707480047FEE7FEE7E1
:1001B000FEE7FEE7FEE7FEE704480549034A054B74
:1001C00070470000DD190008B5000008080B00208A
:1001D000080D0020080B002010B500F07DF9001D6F
:1001E00010BD00BF8D1D000010B50446FFF7F4FFE1
:1001F0000068005DC00602D52046203010BD2046B4
:1002000010BD431A70B593421BD28918801804E0C0
:10021000491E521E0B78401E03709307F8D106E06A
:1002200010390B461038103A78CB78C01038102AA5
:10023000F6D203E0001F091F0B680360121FF9D5F7
:1002400070BDFFF793FF70BDF8B50646144608432E
:10025000800707D0751AA54219D20819102D13D29C
:10026000311907E03046FFF7CCFFF8BD401E491EAC
:1002700002780A70641EF9D2F8BD471B2A46394637
:1002800000F02EF9641B3846A542F6D3011B224626
:10029000304600F025F9F8BDD2B210B513029A1815
:1002A00013049A1800F00EF810BD01E004C0091FF5
:1002B0000429FBD28B0701D50280801CC90700D01E
:1002C0000270704700290BD0C30702D00270401C97
:1002D000491E022904D3830702D50280801C891E8F
:1002E000E3E70022EEE70022DFE7002203098B426A
:1002F00073D3030A8B4258D3030B8B423CD3030CBA
:100300008B4221D312E003460B437FD400224308E3
:100310008B4274D303098B425FD3030A8B4244D3CD
:10032000030B8B4228D3030C8B420DD3FF2209020F
:1003300012BA030C8B4202D31212090265D0030BCE
:100340008B4219D300E0090AC30B8B4201D3CB03C4
:10035000C01A5241830B8B4201D38B03C01A524106
:10036000430B8B4201D34B03C01A5241030B8B4208
:1003700001D30B03C01A5241C30A8B4201D3CB02F3
:10038000C01A5241830A8B4201D38B02C01A5241D8
:10039000430A8B4201D34B02C01A5241030A8B42DB
:1003A00001D30B02C01A5241CDD2C3098B4201D3F3
:1003B000CB01C01A524183098B4201D38B01C01A71
:1003C000524143098B4201D34B01C01A52410309E8
:1003D0008B4201D30B01C01A5241C3088B4201D397
:1003E000CB00C01A524183088B4201D38B00C01A44
:1003F000524143088B4201D34B00C01A5241411A6B
:1004000000D201465241104670475DE0CA0F00D04D
:100410004942031000D34042534000229C46030946
:100420008B422DD3030A8B4212D3FC22890112BACC
:10043000030A8B420CD3890192118B4208D38901A4
:1004400092118B4204D389013AD0921100E08909BC
:10045000C3098B4201D3CB01C01A524183098B429D
:1004600001D38B01C01A524143098B4201D34B0186
:10047000C01A524103098B4201D30B01C01A5241E9
:10048000C3088B4201D3CB00C01A524183088B4270
:1004900001D38B00C01A5241D9D243088B4201D3F9
:1004A0004B00C01A5241411A00D2014663465241E4
:1004B0005B10104601D34042002B00D549427047E3
:1004C00063465B1000D3404201B50020C046C046E1
:1004D00002BD70477047704700487047C80A002047
:1004E000F8B5042A2CD3830712D00B78491C03706B
:1004F000401C521E83070BD00B78491C0370401C14
:10050000521E830704D00B78491C0370401C521EF6
:100510008B079B0F05D0C91ADF002023DE1B08C9FB
:100520000AE0FFF723FEF8BD1D4608C9FD401C4642
:10053000B4402C4310C0121F042AF5D2F308C91A84
:10054000521EF0D40B78491C0370401C521EEAD492
:100550000B78491C0370401C521EE4D409780170CA
:10056000F8BD000000487047A80A0020024670B598
:100570000A4392072AD11E4DEE0104C808C9541B34
:100580009443344017D0D0B2D9B2401A2106014367
:1005900010D190B299B2401A210401430AD110023D
:1005A0001902000A090A401A2102014302D1100E61
:1005B000190E401A70BD9A42DFD010BA19BA88429B
:1005C00001D9012070BD0020C04370BD02780B78B6
:1005D000401C491C002A09D09A4207D102780B78A6
:1005E000401C491C002A01D09A42EFD0D01A70BD9D
:1005F000010101017546FFF7B5FFAE4605006946EA
:100600005346C008C000854618B020B5FFF7D4FD9A
:1006100060BC00274908B6460026C0C5C0C5C0C595
:10062000C0C5C0C5C0C5C0C5C0C5403D49008D4698
:1006300070470446C046C0462046FFF791FD0000C3
:1006400001491820ABBEFEE72600020070470000FB
:10065000002862D0F8B5314C0546202806D21B2D63
:1006600002D000F063FBF8BD012026E020782B4982
:100670000007000F00274E780528F4D203007B44C2
:100680001B79DB189F4404081B1F02002770F8BD6C
:10069000284601F0D3FBF8BD5B2D03D0284600F0BF
:1006A000CBFCF8BD1021E01CFFF71BFE70094001D8
:1006B000DF21A7700840607002202070F8BD032081
:1006C00020703F2D10D0FFF787FD0068415D134873
:1006D0004078C006C00E20290AD03B2D12D0A5704C
:1006E00000F0B2F82770F8BD202006436670F8BD10
:1006F0001028FCD20119C8780A225043401930381A
:10070000C870F8BD1028FCD20520C6410120C006E3
:1007100030181B21C8416070F8BD7047920A002054
:10072000F8B541493F480860404801784908490008
:10073000017001780222114301700178F722114003
:1007400001700178DF2529400170002444701D21CB
:10075000817037490A7992089200921C0A714C7094
:100760008C700A78334B1A704A785A708A789A706B
:10077000CA78D606DA78F60E520952013243CE789C
:100780002A40B606F60F76013243CE78BF277606AA
:10079000F60FB6013A403243DA7009798907890FBA
:1007A00019710178244ACB071178DB0F49084900F9
:1007B00019430378FD269B07DB0F5B00314019438B
:1007C0000378FB265B07DB0F9B003140194303785E
:1007D000F7261B07DB0FDB00314019430378EF26B8
:1007E000DB06DB0F1B0131401943037829409B06D0
:1007F000DB0F5B0119431170417851708178917062
:100800000E490C700E490C700078000701D5A0222B
:1008100000E020224B2149010A48FFF73DFD00F08E
:1008200011FBF8BDF11E0008D4000020C10000201B
:10083000C7000020CC000020C4000020920A002045
:10084000C0000020E0000020F8B5F84EF84F314617
:10085000B3780A79F748F84DC9784D2B7ED00EDC75
:100860001C46413C0C2C7AD223007B441B79DB18BC
:100870009F44253645525F7D98A175B5F6F4EB4C43
:100880006C2B64786CD00CDC632B6FD004DC532BA6
:1008900068D0542B63D134E1662B7DD0682B5ED1B8
:1008A0009BE118466D38092859D203007B441B7917
:1008B000DB189F44F75B545454F6F554F4000029B8
:1008C00000D101212A789206827802D56B78D21A5B
:1008D000D2B28A424AD38278511AC9B2407843E0F0
:1008E000002900D10121AA786B78D21A8A423DDB17
:1008F00082785118AA78C9B28A4237D3EEE7032228
:10090000B256002A00D10122417889184F292DDCE6
:100910008178407880180AE00322B256002A00D17C
:1009200001224178914221DB81784078801AC0B25F
:100930001AE0F178002900D10121AA786B78D21A47
:100940008A4213DB82785118AA78C9B28A420DD341
:100950000446407800F028FFA17804E0C5E0A8E153
:10096000F6E003E0C9E0002000F01EFFF8BDF178DA
:10097000002900D101212A789206827802D56B786D
:10098000D21AD2B28A42F1D304468078401AC1B258
:10099000607800F009FF00E00DE0A178002000F091
:1009A00003FFF8BD0322B256002A00D1012281784C
:1009B000521ED0B2D8E7002A00D10122002900D16E
:1009C0000121521ED0B2491E2A78C9B2920602D520
:1009D0006A785118C9B2AA788A42E2D3C4E70029DA
:1009E00008D001291FD00229DBD1287800072CD597
:1009F000A0222BE02978090701D5A02200E02022BF
:100A000081781D23591A5023594343785024E31AFF
:100A1000C918437880786043C0191818FFF73CFC68
:100A200000F010FAF8BD2978090701D5A02200E0EE
:100A300020224178807850235843401C09187C4874
:100A4000FFF72AFC00F0FEF9F8BD20224B214901F6
:100A50007748FFF721FC00F0F5F9F8BD3EE0FFE72D
:100A6000002908D001291ED00229F6D129780907CA
:100A70002AD5A02229E02978090701D5A02200E083
:100A8000202243780146807850246043C019497879
:100A90001818611AFFF700FC00F0D4F9F8BD54E013
:100AA00050E0E3E031E02978090701D5A02200E019
:100AB000202241788078491C50235843C019FFF701
:100AC000EBFB00F0BFF9E9E7202280785021484392
:100AD000C019FFF7E1FB00F0B5F9DFE7A97804469C
:100AE000807800F0E1FEA178E1E0A9780446807802
:100AF00000F004FFA178002036E7084600F02AFF46
:100B0000CCE7084600F098FEC8E700200827F72346
:100B1000E106C90E3218D278002A04D0072A05D07F
:100B20001B2A0AD106E02A781A4001E02A783A43C3
:100B30002A7002E02A781A402A70401CC0B2814212
:100B4000E8D2ABE700F0E4F9A8E73C488178C5E6D5
:100B5000002407463019C07807281ED004DC04287A
:100B600033D0062831D104E014281AD019282CD10A
:100B70001CE07078800628D52878DF21084028708E
:100B8000002228781146800600D56978A878884226
:100B90001BD3104600F008FE17E0287840084000FC
:100BA00002E02878FB21084028700EE0707880066B
:100BB0000BD5387980088000387139787A78B87820
:100BC000502358431A4BC01811547078641CC00647
:100BD000E4B2C00EA042BDD260E700240127301964
:100BE000C07807281ED004DC042837D0062835D169
:100BF00004E0142824D0192830D126E0707880062B
:100C00002CD5287820210843287000222878114606
:100C1000800600D56978A87888421FD3104600F076
:100C2000C3FD1BE0287838430DE00000920A002045
:100C3000E0000020C7000020C1000020CC00002000
:100C4000287804210843287008E07078800605D5CC
:100C50003348017989088900891C01717078641C06
:100C6000C006E4B2C00EA042B9D217E76970687836
:100C7000002802D068781E2801D901206870AA7067
:100C8000A878002802D0A8781E2801D91E20A870B4
:100C90006878401E6870A878401EA870A8786978A7
:100CA000884203D26878A9786970A87069780020B2
:100CB0005AE61CA402E0641C01F0C0F8002C02D02B
:100CC00020780028F7D17078800602D53F2001F007
:100CD000B5F800243019C578092D05D90A21284610
:100CE000FFF703FB01F0F4F80A212846FFF7FDFAAD
:100CF0000846303001F0A2F87078C006C00EA0425D
:100D000002D93B2001F09AF87078641CC006E4B266
:100D1000C00EA042DED2B07801F090F8BEE600002E
:100D2000C70000203C4553433E5B000010B504461D
:100D30001C2875D203007B441B79DB189F446F701D
:100D40007070707770770D2D4040405A60657077F5
:100D50007077707070707770776C374841780029C1
:100D600007D04278012A62DB81784078401EC0B209
:100D700043E032490A78D20759D00A78920604D55E
:100D800082784978511AC9B200E0817800294ED0A2
:100D90008078401EC1B24F202FE0274840780821BC
:100DA0004007400F081A411ECCB200283FD0202037
:100DB00001F044F82046641EE4B20028F7D136E082
:100DC0001E4CA0786178401A01280ADBA01D8178AA
:100DD000A278491CC9B28A4203D3407800F0E4FCEF
:100DE00005E02078800702D5012000F0B3FD2078CF
:100DF00040071CD510488178002000F0D5FC16E093
:100E00000E4801781022114303E00C480178EF22CC
:100E1000114001700BE003E009490120087010BD8A
:100E20005E2001F00BF84034E0B201F007F804490D
:100E30000020087010BD0000C7000020C100002085
:100E4000920A00200948C178490949011931C17045
:100E5000C178DF221140C170427881785023594314
:100E6000034BC918515C017070470000C700002097
:100E7000E000002030B522480179224A8908137920
:100E800089009B079B0F194301711F4801781F4B75
:100E90004C0819786400CD07ED0F2C4304700478DA
:100EA000FD252C408D07ED0F6D002C430470047858
:100EB000FB252C404D07ED0FAD002C43047004784A
:100EC000F7252C400D07ED0FED002C43047004783E
:100ED000EF252C40CD06ED0F2D012C430470047836
:100EE0008906DF25C90F2C4049010C43047059784D
:100EF0004170997881709178507800F055FC30BD40
:100F0000C7000020CC000020C1000020C400002049
:100F100030B42A4908782A4A107048785070887886
:100F20009070C878C306D078DB0E400940011843A2
:100F3000CB789B06DB0F5C01DF2318402043CC7885
:100F4000BF256406E40FA40128402043D07008792F
:100F50001C498007800F107108781B4AC40710785D
:100F6000E40F4008400020430C78FD25A407E40F5F
:100F70006400284020430C78FB256407E40FA4009C
:100F8000284020430C78F7252407E40FE40028408C
:100F900020430C78EF25E406E40F24012840204389
:100FA0000C781840A406E40F6401204310704878C0
:100FB00050708878907030BC70470000C7000020E7
:100FC000CC000020C1000020C400002030B4144830
:100FD000C178DF221140C170C1784A06114901D59C
:100FE000037808E0027992070BD002799207920FFA
:100FF000012A13D0DB234478827850256A435118A4
:101000006354C1784906C917491CC9074A0EC178FB
:10101000BF2319401143C17030BC70475F23EAE71A
:10102000C7000020E000002002490870087800286E
:10103000FCD1704700000020F8B5374D0026074668
:101040003D2866D011DC0420362F46D006DC282F40
:1010500043D0292F41D0352F17D13EE0372F36D03E
:10106000382F37D03C2F10D153E04D2F12D006DC53
:101070003E2F4ED0442F26D0452F06D10EE04E2FC6
:1010800047D04F2F45D0632F01D0244C2AE0FFF7E3
:1010900047FB3EE0012000F0CFFB3AE0204CA17876
:1010A000304600F081FB1F4881784278891A012977
:1010B00009DBA1788078491CC9B2884203D36078E3
:1010C00000F072FB25E0012000F044FC21E0FFF776
:1010D0001FFF1EE0FFF7CEFE1BE02870F8BD641C6A
:1010E00000F0ACFE002C02D020780028F7D138099F
:1010F0003030392800D9C01D00F0A0FE3807000F9D
:101100003030392800D9C01D00F098FE3E2000F094
:1011100095FE2E70F8BD0000920A00205C210008A8
:10112000C7000020C100002070B54049022048617E
:101130003F4C60780921C30901228720C906002598
:10114000002B21D0637866785B061B0F5B1C1B07A6
:101150005B0E06401E4366707006000F0C2804D01C
:101160002088C00704D0012004E08A61258070BD7A
:10117000012000048861208821884005800DC90A6B
:10118000C9020143218070BD2A4B1E78002E00D178
:10119000258009261E70098AC9070CD0218863782A
:1011A0005B061B0F9A40114349052288490DD20A5C
:1011B000D2020A432280617862784906090F491CED
:1011C0000907490E02400A4362705006000F0B28BF
:1011D000D9D12088C00723D12088400520D5208878
:1011E0000021C005000E0822C307DB0F5918521E4C
:1011F00040081206C9B2120EF6D1C80701D000206D
:1012000001E00120400221888905C90F4902884276
:1012100006D12088C005010E074800F02CF803E035
:10122000FF21054800F027F8258070BD000401402B
:101230005E0000200100002060000020002181707D
:1012400041707047427883789A420AD08278037856
:10125000521C1A4082708278C01C105C08700120F9
:1012600070470020704741788078814201D001208A
:1012700070470020704710B4437802785B1C847874
:101280001340A34209D043785B1C1340437042785B
:10129000C01C115410BC0120704710BC00207047C6
:1012A000417882789142FBD081780278491C1140C4
:1012B00081708178C01C085C7047000010B512492D
:1012C0000020886011490222CA600B6813430B603A
:1012D0000F4908800F4988800F48FFF7AFFF0F487C
:1012E0004168FF2212029143032292038918416050
:1012F0000B49202008600748032201781143017040
:10130000FF2000F00FF810BD000001400004014074
:101310005E000020580000206000002000E400E093
:1013200000E100E0F8B5FF24224E09270546FF063C
:1013300070784006000F34D1388A800731D51E48B6
:1013400020230360002128460822C407E40F611807
:10135000521E40081206C9B2120EF6D1C80701D0BB
:10136000002001E0012040026900084301218902B8
:1013700008433188C90AC90201433180707880214D
:10138000084370700D4803600420FFF74DFE0120F4
:101390004004B8610420FFF747FE0220B861012035
:1013A000F8BD0720FFF740FE641E2406240EBFD1BF
:1013B0000020F8BD5E00002080E100E000E100E0D8
:1013C000F8B5E448FFF76CFF0325E34CFF280FD086
:1013D0002246AA2810D021788B079B0F18D0012B0A
:1013E0001CD0022B7BD0032B11D1FA2878D0A1E19D
:1013F00020782843207032E0207802218008800085
:10140000801C2070F02050709170FFF78BFFF8BDAA
:10141000FA2822D089088900491C2170E02820D0B0
:10142000F02823D00028F2D0CB498A885021D30558
:10143000002BCA4B66DA902800D2185CC64C130603
:101440001AD5C749122500230E7886421CD05B1C92
:10145000891CDBB2AB42F7D361E129432170FF2045
:10146000D3E79088802108439080F8BD9088FF21C1
:10147000013108439080F8BD93050DD5B949102579
:1014800000230E78864201D1487815E05B1C891C48
:10149000DBB2AB42F5D342E10A4203D0B24959284C
:1014A00009D309E0510703D5AF49592803D303E015
:1014B000AE49592800D2085CD6380E2843D2030022
:1014C0007B441B79DB189F44060C0C103E3E3E19F2
:1014D000193E3E143E0608208243A2801FE125E10A
:1014E00033E110208243A28019E120208243A280B0
:1014F00015E1012040028243A28010E14020824396
:10150000A2800CE1902800D2185C13060BD59449F8
:10151000122500230E7886420ED05B1C891CDBB29C
:10152000AB42F7D3FBE093050ED58E491026054656
:1015300000230F78AF4201D149781DE05B1C891C64
:10154000DBB2B342F5D3EAE0530709D50A4203D030
:10155000864959280DD30EE08349592809D30AE05A
:101560000A4203D08049592803D304E07F4959280F
:1015700001D2095C00E00146002944D00D46D63D69
:101580000E2D57D22B007B441B79DB189F44060B92
:101590000B101A2B3C4D4D52C710C7066E48082140
:1015A0000A438280BBE06C4810210A438280B6E087
:1015B0006948110602D50121490200E020211143AA
:1015C0008180ACE06449042042408A802078520740
:1015D00080088000801C2070ED204870520F8A70B7
:1015E000FFF7A0FE9BE05C49022042408A80207801
:1015F000520780088000801C2070ED204870520F38
:101600008A70FFF78FFE8AE05349012042408A80AA
:101610002078520780088000801C2070ED204870E0
:10162000520F8A70FFF77EFE79E04B4840210A4353
:10163000828074E0DF2919D1910702D5D10602D545
:101640000DE0D1060BD54A490E2500230C788442C3
:101650000BD05B1C891CDBB2AB42F7D35FE0454982
:101660000E2400230D78854212D14978080056D007
:10167000C02833D2110717D5014640391F2902D996
:10168000213919294BD801466139192943D944E038
:101690005B1C891CDBB2A342E4D340E0401A403813
:1016A000C0B200F0B7F83AE001464139192902D931
:1016B000203919290FD851070DD5D10602D5FEF7CB
:1016C00093FD07E001466139192901D8202100E086
:1016D0000021401AC0B200F09DF820E00846C03852
:1016E000C4B2162C08D21B2000F094F82249A000A6
:1016F000085800F075F812E0C034E0B21107EAD5DE
:10170000014640391F2902D92139192907D8014634
:101710006139192901D82021C0E70021BEE70E4810
:10172000FF228188813291438180F8BDFA2804D05C
:10173000FE2808D0880880000AE09078FFF7F2FDC4
:101740002078284304E050785FE688088000401C39
:101750002070F8BD60000020580000209C1F000889
:10176000362100082C200008A52000084C20000885
:10177000FE2000081A210008680000200120074A06
:10178000C006106020211160054A5368034353606E
:1017900030BF044A106011607047000080E100E033
:1017A00000ED00E000E100E070B50A4A14785578D9
:1017B000937850267343084E9B19EC544F2808D851
:1017C0001D2906D850709170FFF73CFB034900209B
:1017D000087070BDC7000020E0000020C00000209D
:1017E000F8B50446094E802709E0641C29460848DC
:1017F000FFF741FD0028F9D0306838433060002CF5
:1018000002D02578002DF0D1F8BD0000003801404D
:101810004500002010B5044621460548FFF72BFD82
:101820000028F9D00348016880221143016010BDEF
:101830004500002000380140F8B500281DD0401EAA
:10184000C5B2164F7C78B87815490A784B788978F4
:1018500050267143134E89195A54A04208D9021BCD
:10186000502042436043811908465030FEF7ECFC9B
:101870003878000703D5A02202E00025E1E7202206
:1018800050204443A0195021FEF706FDFFF7DAFA75
:1018900028466D1EEDB20028D4D1F8BDC10000204D
:1018A000C7000020E000002070B5114A1478557878
:1018B000927850235A430F4BD218AC5450224243D3
:1018C000D418814206D90A1A5020424321462018D2
:1018D000FEF7BAFC08480078000701D5A02200E016
:1018E000202220465021FEF7D7FCFFF7ABFA70BD4F
:1018F000C7000020E0000020C100002070B50C46A9
:1019000011490A784B788978502569430F4D491958
:101910005A54844207D9221A502148434A43401955
:101920004118FEF791FC0A480078000701D5A02273
:1019300000E020225020444360195021FEF7ACFC07
:10194000FFF780FA70BD0000C7000020E000002013
:10195000C1000020F8B500281CD0401EC7B21C4CA6
:101960006078A6781B490A784B78897850256943B6
:10197000194D49195A54864207D9321A5021484301
:101980004A4340194118FEF75FFC2078000703D551
:10199000A02202E00027E2E72022502046437019EF
:1019A0005021FEF779FCFFF74DFA2078000701D5AA
:1019B000A02200E02022A178502041434819502164
:1019C000FEF76AFC38467F1EFFB20028C8D1F8BD7A
:1019D000C1000020C7000020E000002011491120B4
:1019E0000860114801680122120411430160016876
:1019F0008903FCD54260016801221206114301608F
:101A000001688901FCD541680222114341604168A7
:101A10000907890F0229FAD10168490849000160C4
:101A2000704700000020024000100240F8B5824DCF
:101A3000288A834C43078148A17A00270918E27A53
:101A40006068002B57DA804B7E4E1E63D20745D06C
:101A50007E4A801D1223867836018E5D9670C67888
:101A600036018E5DD670067936018E5D1671467927
:101A7000001D36018E5D5671121D5B1EEBD1A07AE2
:101A8000401CC0B2A072102803D1A7726068503009
:101A90006060A17A69480A1860686D4903781B0183
:101AA000D35C4B7043781B01D35C8B7083781B0134
:101AB000D35CCB70C3781B01D35C0B7103791B0122
:101AC000D35C4B7143791B01D35C8B7183791B0110
:101AD000D35CCB71C0790001105C0872E07A80079A
:101AE00005D531215B48490101604014A883288A4B
:101AF000042188439EE02B8ADB077DD02689731C56
:101B000023814F4BDB7A5B085B00252E59D00BDC21
:101B10004B4FFF7A3F07BC46BF0F022E0DD0042E5D
:101B20001ED0242E5CD127E0FF3EFF3E063E4BD068
:101B3000012E4BD0092E53D14CE001204005092144
:101B4000C90688616046810F2820002905D0022F30
:101B500003D0298B8143298342E0298B0143FAE793
:101B6000022F03D220210920C0068161FD200340FD
:101B7000E3723948606033E001231A43E27203786C
:101B8000334A1B01CB5C537043781B01CB5C9370D1
:101B900083781B01CB5CD370C3781B01CB5C1371C2
:101BA00003791B01CB5C537143791B01CB5C9371AF
:101BB00083791B01CB5CD371C0790001085C107282
:101BC0000EE00220024303E0E37209E0FD20024040
:101BD000E27205E02781A7722068002800D08047C4
:101BE000E07A800716D51848016B4908490001635F
:101BF00052214163164900E01DE0C163FF211548F1
:101C0000213101608014A883144841680122120721
:101C10001143416012480178002902D00178491E21
:101C200001704178002902D04178491E4170288A0C
:101C3000400840002882F8BD0004004063210008ED
:101C4000D40000209130000000000240470A00202C
:101C5000400A002040040040E000002000ED00E0C9
:101C60000000002038B50E4CE0690E4D800604D50A
:101C7000A888C1B20C48FFF7FEFAE069000608D553
:101C800069460A48FFF7DEFA002803D06846007864
:101C9000288138BD206880218843206038BD00003D
:101CA000003801402038014002000020450000209B
:101CB00010B50F4881690122920311438161FF2110
:101CC0000C48B33181812D2101600B48FFF7B6FA32
:101CD0000A48FFF7B3FA0A48816903220902090A90
:101CE00092078918816101200649C006086010BD6D
:101CF0000010024000380140020000204500002092
:101D000000E400E000E100E03A4840693A49084355
:101D10003849486188693949084336498861C86942
:101D2000022108433349C86109213548C9060860C2
:101D30000120000608620011C860032088808861C5
:101D4000FF20113048620120C00388602D4908201F
:101D50000860102008622C490420086029490820E6
:101D600088602A49002008812949C02048636820EA
:101D70000883D220886328492648088000200881EB
:101D8000192023498001C86289890520204A01431E
:101D90009181918A012211431D4A91821F498988AC
:101DA000D21311431D4A91801949098801431848EB
:101DB0000180C1211A48890001801A498180018867
:101DC0004022114301801949174888631848016867
:101DD000090A09020160174990020860164AD06991
:101DE000FF231B04984301239B051843D0618805FA
:101DF00008607047001002400100460001500000DA
:101E000055A528280004004800140048D4000020EC
:101E10000004004003100000200400404004004083
:101E200000300140120700000C3001400000024069
:101E300010E400E000E100E004ED00E0F8B5044645
:101E400020480178C90604D521466039202900D2EE
:101E5000CCB20178090701D580210C431A4E3178A4
:101E600001271A4D00291CD00178C9070BD0A97889
:101E70008278914209D2A878401CC1B20020FFF7B5
:101E800093FC2C70F8BD2C7016E00078800708D504
:101E90000120FFF75FFDA9780020FFF785FC2C707B
:101EA000F8BD2C7068784F2806D2A9786878401C55
:101EB000C0B2FFF779FCF8BDA9786878FFF774FC29
:101EC0003770F8BDC1000020C0000020C70000200E
:101ED00070B504460A21FEF708FA0D46092C01D90F
:101EE000FFF7F6FF28463030FFF7A8FF70BD00006F
:101EF0000B48C178C278491CC906C90E5209520163
:101F00000A43C270C178C906C90E1E2907D3C17819
:101F100020221143C170C17849094901C17070473D
:101F2000C7000020FFF7F0FEFFF7C2FEFFF7C6F97B
:101F3000FEF7F6FB0B4C0C48FFF795F9002804D090
:101F40000948FFF7ADF9FEF783FB0848FFF78BF967
:101F5000002801D0FFF734FAE0788006EBD5FFF7D0
:101F600035F8E8E7C70000200200002060000020EC
:101F700010B500290AD00878002807D00548784411
:101F8000FEF7F4FA002801D0002010BD0248784482
:101F900010BD0000421200003A120000FF43413F12
:101FA0003D3B3C58644442403E0F295965382A70F5
:101FB0001D10025A66712C1F1E11035B672E2D2007
:101FC0001205045C68392F211413065D6931302332
:101FD0002215075E6A7232241608095F6B332517D3
:101FE000180B0A606C34352627190C616D73287440
:101FF0001A0D626E3A361C1B752B63765556777830
:10200000797A0E7B7C4F7D4B477E7F6F5253504CCD
:102010004D480145574E514A3749465480818241C7
:102020005485868788898A8B8C8D8E8F037E0423C6
:10203000057B065B077C0860095C0B400C5D0D7D31
:1020400010401B7E1DD62AD736D838D9001B2682D1
:102050002227282D8A5F6385293D0809617A6572E8
:10206000747975696F705E240DD6717364666768E4
:102070006A6B6C6D97FDD72A77786376626E2C3B1E
:102080003A21D82AD920DAC0C1C2C3C4C5C6C7C83C
:10209000C9DBDCDFDFDFDFDFDFDFDFDFDFDFDFDF6D
:1020A00000003CCACB001B31323334353637383967
:1020B00030F82B0809415A4552545955494F50A8F8
:1020C0009C0DD65153444647484A4B4C4D25FDD7AD
:1020D000E657584356424E3F2E2FA3D82AD920DA2E
:1020E000C0C1C2C3C4C5C6C7C8C9DBDCDFDFDFDF10
:1020F000DFDFDFDFDFDFDF302E00003ECACB372A35
:102100004737483849394A2D4B344C354D364E2BDC
:102110004F31503251335230532E372A47CC48CDAD
:1021200049CE4A2D4BCF4C354DD04E2B4FD150D2AE
:1021300051D352D453D51C0D1DE32ADD352F36DE85
:1021400037E038E146E247CC48CD49CE4BCF4DD0C1
:102150004FD150D251D352D453D500003C455343B4
:102160003E3C0000000000000000000000000000F5
:1021700000000000007E81A58181BD9981817E00E3
:1021800000000000007EFFDBFFFFC3E7FFFF7E00D3
:10219000000000000000006CFEFEFEFE7C38100017
:1021A0000000000000000010387CFE7C38100000A9
:1021B000000000000000183C3CE7E7E718183C006E
:1021C000000000000000183C7EFFFF7E18183C0055
:1021D000000000000000000000183C3C1800000057
:1021E000000000FFFFFFFFFFFFE7C3C3E7FFFFFFA4
:1021F000FFFFFF00000000003C664242663C00001A
:10220000000000FFFFFFFFFFC399BDBD99C3FFFFA3
:10221000FFFFFF00001E0E1A3278CCCCCCCC780029
:1022200000000000003C666666663C187E181800D8
:1022300000000000003F333F3030303070F0E000ED
:1022400000000000007F637F6363636367E7E6C0AD
:102250000000000000001818DB3CE73CDB18180009
:102260000000000080C0E0F0F8FEF8F0E0C0800060
:102270000000000002060E1E3EFE3E1E0E0602007C
:102280000000000000183C7E1818187E3C18000062
:1022900000000000006666666666666600666600A8
:1022A00000000000007FDBDBDB7B1B1B1B1B1B001C
:1022B000000000007CC660386CC6C66C380CC67C5A
:1022C0000000000000000000000000FEFEFEFE0016
:1022D0000000000000183C7E1818187E3C187E0094
:1022E0000000000000183C7E181818181818180074
:1022F0000000000000181818181818187E3C180064
:102300000000000000000000180CFE0C1800000087
:1023100000000000000000003060FE60300000009F
:10232000000000000000000000C0C0C0FE0000006F
:102330000000000000000000286CFE6C2800000077
:10234000000000000000001038387C7CFEFE000019
:1023500000000000000000FEFE7C7C383810000009
:10236000000000000000000000000000000000006D
:102370000000000000183C3C3C1818180018180019
:1023800000000000666666240000000000000000F7
:102390000000000000006C6CFE6C6C6CFE6C6C004D
:1023A00000000018187CC6C2C07C060686C67C18D1
:1023B00018000000000000C2C60C183060C686007D
:1023C0000000000000386C6C3876DCCCCCCC760099
:1023D000000000003030306000000000000000000D
:1023E00000000000000C18303030303030180C0085
:1023F000000000000030180C0C0C0C0C0C18300005
:102400000000000000000000663CFF3C6600000089
:10241000000000000000000018187E1818000000DE
:102420000000000000000000000000001818183034
:1024300000000000000000000000FE00000000009E
:10244000000000000000000000000000001818005C
:102450000000000000000002060C183060C0800080
:102460000000000000386CC6C6D6D6C6C66C380060
:1024700000000000001838781818181818187E0086
:1024800000000000007CC6060C183060C0C6FE00CC
:1024900000000000007CC606063C060606C67C005E
:1024A00000000000000C1C3C6CCCFE0C0C0C1E0050
:1024B0000000000000FEC0C0C0FC060606C67C008E
:1024C00000000000003860C0C0FCC6C6C6C67C0064
:1024D0000000000000FEC606060C18303030300048
:1024E00000000000007CC6C6C67CC6C6C6C67C000E
:1024F00000000000007CC6C6C67E0606060C7800FA
:10250000000000000000001818000000181800006B
:10251000000000000000001818000000181830002B
:10252000000000000000060C18306030180C060097
:1025300000000000000000007E00007E000000009F
:102540000000000000006030180C060C183060001D
:1025500000000000007CC6C60C18181800181800EF
:102560000000000000007CC6C6DEDEDEDCC07C00B1
:10257000000000000010386CC6C6FEC6C6C6C60005
:102580000000000000FC6666667C66666666FC000D
:1025900000000000003C66C2C0C0C0C0C2663C0073
:1025A0000000000000F86C6666666666666CF800FF
:1025B0000000000000FE6662687868606266FE00E7
:1025C0000000000000FE6662687868606060F000ED
:1025D00000000000003C66C2C0C0DEC6C6663A000D
:1025E0000000000000C6C6C6C6FEC6C6C6C6C600F7
:1025F00000000000003C18181818181818183C00A3
:1026000000000000001E0C0C0C0C0CCCCCCC780094
:102610000000000000E666666C78786C6666E6008E
:102620000000000000F06060606060606266FE00B4
:102630000000000000C6EEFEFED6C6C6C6C6C60036
:102640000000000000C6E6F6FEDECEC6C6C6C60026
:1026500000000000007CC6C6C6C6C6C6C6C67C0052
:102660000000000000FC6666667C60606060F00050
:1026700000000000007CC6C6C6C6C6C6D6DE7C0CFE
:102680000E00000000FC6666667C6C666666E6000E
:1026900000000000007CC6C660380C06C6C67C0080
:1026A00000000000007E7E5A1818181818183C0008
:1026B0000000000000C6C6C6C6C6C6C6C6C67C00A8
:1026C0000000000000C6C6C6C6C6C6C66C381000EC
:1026D0000000000000C6C6C6C6D6D6D6FEEE6C0008
:1026E0000000000000C6C66C7C38387C6CC6C60092
:1026F0000000000000666666663C181818183C006A
:102700000000000000FEC6860C183060C2C6FE0045
:1027100000000000003C30303030303030303C00C1
:1027200000000000000080C0E070381C0E060200AF
:1027300000000000003C0C0C0C0C0C0C0C0C3C00C1
:1027400000000010386CC60000000000000000000F
:102750000000000000000000000000000000000079
:10276000FF000030301800000000000000000000F2
:102770000000000000000000780C7CCCCCCC76007F
:102780000000000000E06060786C666666667C00B1
:1027900000000000000000007CC6C0C0C0C67C0075
:1027A00000000000001C0C0C3C6CCCCCCCCC7600A7
:1027B00000000000000000007CC6FEC0C0C67C0017
:1027C0000000000000386C6460F060606060F00041
:1027D000000000000000000076CCCCCCCCCC7C0CFF
:1027E000CC78000000E060606C7666666666E600A5
:1027F00000000000001818003818181818183C00BD
:1028000000000000000606000E0606060606066624
:10281000663C000000E06060666C78786C66E600FC
:1028200000000000003818181818181818183C0074
:102830000000000000000000ECFED6D6D6D6C60090
:102840000000000000000000DC6666666666660048
:1028500000000000000000007CC6C6C6C6C67C00A2
:102860000000000000000000DC66666666667C60B2
:1028700060F000000000000076CCCCCCCCCC7C0C0E
:102880000C1E000000000000DC7666606060F00056
:1028900000000000000000007CC660380CC67C0010
:1028A0000000000000103030FC30303030361C00AA
:1028B0000000000000000000CCCCCCCCCCCC7600DA
:1028C000000000000000000066666666663C1800B6
:1028D0000000000000000000C6C6D6D6D6FE6C0080
:1028E0000000000000000000C66C3838386CC600DC
:1028F0000000000000000000C6C6C6C6C6C67E06B0
:102900000CF8000000000000FECC183060C6FE008D
:1029100000000000000E18181870181818180E0083
:1029200000000000001818181800181818181800CF
:102930000000000000701818180E18181818700001
:10294000000000000076DC00000000000000000035
:102950000000000000000010386CC6C6C6FE000073
:1029600000000000003C66C2C0C0C0C2663C0C064D
:102970007C00000000CC0000CCCCCCCCCCCC7600D1
:10298000000000000C1830007CC6FEC0C0C67C00F1
:102990000000000010386C00780C7CCCCCCC7600A9
:1029A0000000000000CC0000780C7CCCCCCC760081
:1029B0000000000060301800780C7CCCCCCC760095
:1029C00000000000386C3800780C7CCCCCCC760051
:1029D000000000000000003C666060663C0C063CA5
:1029E0000000000010386C007CC6FEC0C0C67C0031
:1029F0000000000000C600007CC6FEC0C0C67C000F
:102A000000000000603018007CC6FEC0C0C67C001C
:102A100000000000006600003818181818183C0064
:102A200000000000183C66003818181818183C0000
:102A300000000000603018003818181818183C0002
:102A400000000000C60010386CC6C6FEC6C6C60030
:102A5000000000386C3800386CC6C6FEC6C6C6001A
:102A600000000018306000FE66607C606066FE005A
:102A70000000000000000000CC76367ED8D86E0042
:102A800000000000003E6CCCCCFECCCCCCCCCE0008
:102A90000000000010386C007CC6C6C6C6C67C00AC
:102AA0000000000000C600007CC6C6C6C6C67C008A
:102AB00000000000603018007CC6C6C6C6C67C0098
:102AC000000000003078CC00CCCCCCCCCCCC760054
:102AD0000000000060301800CCCCCCCCCCCC760010
:102AE0000000000000C60000C6C6C6C6C6C67E06F8
:102AF0000C780000C6007CC6C6C6C6C6C6C67C002A
:102B000000000000C600C6C6C6C6C6C6C6C67C0053
:102B10000000000018183C66606060663C181800F1
:102B200000000000386C6460F060606060E6FC00EB
:102B3000000000000066663C187E187E1818180019
:102B400000000000F8CCCCF8C4CCDECCCCCCC60065
:102B5000000000000E1B1818187E1818181818D836
:102B60007000000018306000780C7CCCCCCC760073
:102B7000000000000C1830003818181818183C0015
:102B800000000000183060007CC6C6C6C6C67C00C7
:102B9000000000007CC660386CC6C66C380CC67C71
:102BA000000000000076DC00DC6666666666660093
:102BB00000000076DC00C6E6F6FEDECEC6C6C60025
:102BC000000000003C6C6C3E007E00000000000035
:102BD00000000000386C6C38007C00000000000031
:102BE0000000000000303000303060C0C6C67C00FD
:102BF000000000000000000000FEC0C0C0C00000D7
:102C0000000000000000000000FE060606060000AE
:102C100000000000C0C0C2C6CC183060DC860C18B2
:102C20003E000000C0C0C2C6CC183066CE9E3E0634
:102C300006000000001818001818183C3C3C18004A
:102C40000000000000000000366CD86C3600000068
:102C50000000000000000000D86C366CD8000000B6
:102C60000000001144114411441144114411441155
:102C700044114455AA55AA55AA55AA55AA55AA556C
:102C8000AA55AADD77DD77DD77DD77DD77DD77DDC6
:102C900077DD771818181818181818181818181831
:102CA00018181818181818181818F81818181818C4
:102CB0001818181818181818F818F81818181818D4
:102CC00018181836363636363636F636363636363E
:102CD00036363600000000000000FE363636363646
:102CE0003636360000000000F818F81818181818C2
:102CF0001818183636363636F606F636363636367E
:102D00003636363636363636363636363636363663
:102D10003636360000000000FE06F6363636363609
:102D20003636363636363636F606FE0000000000F9
:102D300000000036363636363636FE00000000001B
:102D40000000001818181818F818F8000000000003
:102D500000000000000000000000F8181818181803
:102D6000181818181818181818181F000000000054
:102D700000000018181818181818FF0000000000AC
:102D800000000000000000000000FF1818181818CC
:102D9000181818181818181818181F1818181818AC
:102DA00018181800000000000000FF0000000000DC
:102DB00000000018181818181818FF1818181818F4
:102DC00018181818181818181F181F181818181875
:102DD00018181836363636363636373636363636EC
:102DE000363636363636363637303F00000000008D
:102DF00000000000000000003F303736363636361F
:102E00003636363636363636F700FF00000000001C
:102E10000000000000000000FF00F73636363636AE
:102E20003636363636363636373037363636363646
:102E30003636360000000000FF00FF0000000000F2
:102E40000000003636363636F700F7363636363678
:102E50003636361818181818FF00FF00000000005A
:102E600000000036363636363636FF0000000000E9
:102E70000000000000000000FF00FF1818181818DC
:102E800018181800000000000000FF3636363636ED
:102E9000363636363636363636363F0000000000D7
:102EA00000000018181818181F181F000000000054
:102EB00000000000000000001F181F181818181844
:102EC000181818000000000000003F36363636366D
:102ED00036363636363636363636FF3636363636C9
:102EE0003636361818181818FF18FF18181818183A
:102EF00018181818181818181818F80000000000EA
:102F0000000000000000000000001F18181818182A
:102F1000181818FFFFFFFFFFFFFFFFFFFFFFFFFF76
:102F2000FFFFFF00000000000000FFFFFFFFFFFFAA
:102F3000FFFFFFF0F0F0F0F0F0F0F0F0F0F0F0F064
:102F4000F0F0F00F0F0F0F0F0F0F0F0F0F0F0F0FEE
:102F50000F0F0FFFFFFFFFFFFFFF0000000000004B
:102F6000000000000000000076DCD8D8D8DC760035
:102F7000000000000078CCCCCCD8CCC6C6C6CC00B3
:102F80000000000000FEC6C6C0C0C0C0C0C0C00077
:102F900000000000000000FE6C6C6C6C6C6C6C003F
:102FA000000000000000FEC66030183060C6FE0061
:102FB00000000000000000007ED8D8D8D8D87000EB
:102FC0000000000000000066666666667C6060C007
:102FD0000000000000000076DC181818181818000F
:102FE0000000000000007E183C6666663C187E000B
:102FF000000000000000386CC6C6FEC6C66C380073
:103000000000000000386CC6C6C66C6C6C6CEE002C
:1030100000000000001E30180C3E666666663C002C
:1030200000000000000000007EDBDBDB7E00000013
:1030300000000000000003067EDBDBF37E60C000C2
:1030400000000000001C3060607C606060301C008C
:103050000000000000007CC6C6C6C6C6C6C6C600C4
:1030600000000000000000FE0000FE0000FE000066
:103070000000000000000018187E18180000FF0073
:1030800000000000000030180C060C1830007E0014
:103090000000000000000C18306030180C007E00AA
:1030A00000000000000E1B1B18181818181818181C
:1030B0001818181818181818181818D8D8D8700010
:1030C000000000000000001818007E001818000022
:1030D000000000000000000076DC0076DC0000004C
:1030E00000000000386C6C38000000000000000098
:1030F00000000000000000000000181800000000A0
:1031000000000000000000000000001800000000A7
:10311000000000000F0C0C0C0C0CEC6C6C3C1C0048
:1031200000000000D86C6C6C6C6C000000000000AB
:103130000000000070D83060C8F8000000000000F7
:10314000000000000000007C7C7C7C7C7C7C00001B
:10315000000000000000000000000000000000006F
:10316000000000210030003100320033003400350F
:1031700000360037003800390040004F41004F4210
:10318000004F43004F44005B317E005B327E005BAA
:10319000337E005B347E005B357E005B367E000054
:1031A000D032000800000020D4000000F800000821
:1031B000A4330008D4000020340C000014010008DF
:1031C0001001000043000000F8FFFFFF00404040F6
:1031D00040404040404041414141414040404040EA
:1031E0004040404040404040404040404005020296
:1031F0000202020202020202020202020220202055
:1032000020202020202020020202020202029090B0
:1032100090909090101010101010101010101010AE
:103220001010101010101010020202020202888802
:10323000888888880808080808080808080808080E
:1032400008080808080808080202020240000000F6
:10325000000000000000000000000000000000006E
:10326000000000000000000000000000000000005E
:10327000000000000000000000000000000000004E
:10328000000000000000000000000000000000003E
:10329000000000000000000000000000000000002E
:1032A000000000000000000000000000000000001E
:1032B000000000000000000000000000000000000E
:1032C00000000000000000000000000000000000FE
:1032D00000003F00000000000000000000000000AF
:1032E00000000000000000000000000000000000DE
:1032F00000000000000000000000000000000000CE
:1033000000000000000000000000000000000000BD
:1033100000000000000F000000000000000000009E
:10332000000000000000000000000000000000009D
:103330000300000000000000673100086931000848
:103340006B3100086D3100086F31000871310008E1
:1033500073310008753100087731000865310008C5
:103360006331000879310008873100087B3100089B
:10337000973100088431000881310008933100083A
:103380007E3100089B3100088B3100088F31000826
:10339000000000000000000000000000000000002D
:0433A0000000000029
:04000005080000B53A
:00000001FF
